:020000040800F2
:10000000100B00209D01000895320008C127000850
:10001000DD2C00088B070008293E000800000000C6
:100020000000000000000000000000000D35000886
:10003000A90B000800000000F1330008B5350008E6
:10004000B7010008B7010008B7010008B7010008B0
:10005000B7010008B7010008B7010008B7010008A0
:10006000B7010008B7010008B7010008B701000890
:10007000B7010008B7010008B7010008B701000880
:10008000B7010008B7010008B7010008B701000870
:10009000B7010008B7010008B7010008B701000860
:1000A000B7010008B7010008B7010008B701000850
:1000B0008537000891370008B7010008B70100082C
:1000C000B7010008B7010008B7010008B701000830
:1000D000B7010008493D0008113E00081D3E000818
:1000E000AB0B0008B7010008B7010008B701000812
:1000F000B7010008B7010008B7010008B701000800
:10010000B7010008B7010008B7010008B7010008EF
:10011000B7010008B7010008B7010008B7010008DF
:10012000B7010008B7010008B7010008B7010008CF
:10013000B7010008B7010008B7010008B7010008BF
:10014000B7010008B7010008B7010008B7010008AF
:10015000B7010008B7010008B7010008B70100089F
:10016000B7010008B7010008B7010008B70100088F
:10017000B7010008B7010008B7010008000000003F
:10018000B7010008B7010008DFF80CD000F07CFAD6
:100190000048004759470008100B002006488047D8
:1001A00006480047FEE7FEE7FEE7FEE7FEE7FEE75C
:1001B000FEE7FEE7FEE7FEE74D360008890100088E
:1001C0002DE9F05F0546002092469B46884606468C
:1001D000814640241BE0284641464746224600F01F
:1001E0008AF853465A46C01A914110D31146184610
:1001F000224600F071F82D1A67EB01084F4622469F
:100200000120002100F068F817EB00094E41201E84
:10021000A4F10104DFDC484631462A464346BDE8E6
:10022000F09F40EA01039B0703D009E008C9121FB1
:1002300008C0042AFAD203E011F8013B00F8013BA0
:10024000521EF9D27047D2B201E000F8012B491ECC
:10025000FBD270470022F6E710B513460A46044663
:100260001946FFF7F0FF204610BD10B5002200E050
:10027000521C835C8C5CA34201D1002BF8D1D8B214
:10028000E1B2401A10BD00F0004230F000400AD048
:10029000C10D01F56071C0F3160042EA0151C208B8
:1002A00040071143704700200146704730B50B46A8
:1002B000014600202022012409E021FA02F59D4296
:1002C00005D303FA02F5491B04FA02F52844151E6A
:1002D000A2F10102F1DC30BD202A04DB203A00FA51
:1002E00002F1002070479140C2F1200320FA03F38D
:1002F000194390407047202A04DB203A21FA02F08B
:100300000021704721FA02F3D040C2F1200291404F
:100310000843194670472DE9FE4F804681EA0300E5
:10032000C00F0C46009021F0004123F00045B8EBCF
:100330000200A94105D24046214690461C460B4684
:10034000024623F00040104347D0270DC7F30A00B0
:10035000C3F30A510290401A019040286BDAC3F3AC
:10036000130040F4801B0098924620B10023D2EB8A
:10037000030A63EB0B0B01985946C0F1400250464B
:10038000FFF7AAFF06460D4650465946019A00F06F
:100390008DF910EB08006141002487EA115284EACC
:1003A000E7731A4340D0009A62B3019A012A4FEAD8
:1003B000075215DC001B61EB02014FF0004202EA1C
:1003C0000752CDE90042001C41F5801132462B4610
:1003D00000F08DF903B0BDE8F08F40462146F9E703
:1003E000001B61EB0201001C41F5801300185B410A
:1003F0002018A2F5001747EB030140EAD570B619A3
:100400006D4111E06D084FEA360645EAC0754FEAC6
:100410000752001B61EB0201001C41F580114908E5
:100420004FEA30000019514132462B4603B0BDE877
:10043000F04F00F04DB90098012240000023D0EBAE
:10044000020263EBE073009821464FEAE074B8EBD8
:10045000000061EB0401E9E783F000435BE781F012
:10046000004158E72DE9FE4F81EA030404F00044FF
:1004700021F0004100944FF0000B23F0004350EABC
:1004800001045ED052EA03045BD0C3F30A54C1F303
:100490000A552C44A4F2F3340194A0FB0254C1F396
:1004A000130141F48011C3F3130343F4801301FBE0
:1004B000024400FB034E840A970A44EA815447EA47
:1004C0008357A4FB076802958D0A05FB07854FEA51
:1004D000932C04FB0C542705029D4FEA065847EA6B
:1004E0001637B5EB08056EEB070C870E920E47EA40
:1004F000811742EA8312A7FB0201B6EB0B0164EB02
:1005000000042B0D43EA0C335E1844EB1C50DA4612
:100510005146E7FB0201C5F313044FEA0B3343EAEC
:1005200014534FEA0432019C43EA0603A4F10C047D
:100530000294009CCDE900B400F0D9F803B0BDE806
:10054000F08F00200146F9E72DE9F04D81EA030420
:1005500004F0004B21F0004514464FF0000A23F050
:10056000004150EA050220D054EA01021DD0C5F333
:100570000A570246C5F31303C1F31300C1F30A5629
:1005800040F4801543F48013A7EB0608101BD646F1
:1005900008F2FD3873EB050002D308F1010801E011
:1005A00092185B41B8F1000F03DA00200146BDE864
:1005B000F08D00204FF48011064684460EE0171B94
:1005C00073EB050705D3121B63EB050306434CEAE7
:1005D000010C49084FEA300092185B4150EA0107CC
:1005E000EDD152EA030012D082EA040083EA050149
:1005F000084305D0101BAB4106D20122002306E0C0
:1006000000224FF0004302E06FF0010253101AEB9A
:1006100006004CEB085110EB0A0041EB0B01BDE862
:10062000F04D00F055B8C1F30A52C1F3130140F286
:10063000FF3341F480119A4202DA002001467047EC
:1006400040F233439A42A2F2334202DC5242FFF7B5
:1006500052BEFFF741BE000030B5041E71F1000428
:1006600004DB4FF00044404264EB0101141E73F1BF
:10067000000405DB1C464FF00043524263EB0403C9
:10068000994208BF904230BD064C074D06E0E06835
:1006900040F0010394E8070098471034AC42F6D3C9
:1006A000FFF776FDC8480008E8480008202A06DB66
:1006B000CB17203A41FA02F043EAE07306E041FA30
:1006C00002F3D040C2F1200291400843194670471E
:1006D00010B5141E73F1000408DA401C41F100014A
:1006E00092185B411A4301D120F0010010BD2DE9A1
:1006F000F04D92469B4611B1B1FA81F202E0B0FA98
:1007000080F220329046FFF7E7FD04460F4640EAAC
:100710000A0041EA0B0153465A46084313D01146DA
:1007200053EA010019D0C8F140025046FFF7E3FD3B
:1007300005460E46504659464246FFF7CDFD084352
:1007400005D0012004E020463946BDE8F08D0020A8
:10075000054346EAE0762C4337430A986305E40AEA
:10076000A0EB08000022FD0A44EA47540A3002D5F3
:1007700000200146E9E7010510196941DDE9084556
:1007800000196941BDE8F04DA2E7FEE710B5002071
:100790002DED028BB0EE608AF0EE408A02F0D6FEBC
:1007A000F0EE480AB0EE680A02F0FAFE02490020B4
:1007B0008870BDEC028B10BD1C00002010B500201D
:1007C00002F0C4FE9FED040AF0EE400A02F0E8FEDB
:1007D00002490120887010BD000000001C000020AC
:1007E00010B5012002F0B2FE0448D0ED050AB4387D
:1007F00090ED050ABDE8104002F0C8BE38010020A7
:100800002DE9F041244C254F0025607A012607F19F
:10081000B408C0B1207A20B3012812D1D4ED090A5E
:100820009FED1F0A94ED0A1A70EE800A31EE400A1D
:1008300002F0ACFE01F0CCFF002802D065722572F8
:10084000A670BDE8F081012002F080FE97ED050A58
:1008500084ED0A0A98ED050A84ED090A257266728C
:10086000A570D4ED090A9FED0F0A94ED0A1A70EEF7
:10087000C00A31EE000A02F089FE01F0A9FF00284B
:10088000DFD0267297ED050A84ED0A0A98ED050A75
:1008900084ED090AD5E700001C0000208400002038
:1008A00000002043000016432DE9FC5F464CDFF8B2
:1008B0001CA1012720794FF0000B0AF1B409002890
:1008C00021D1012002F042FEDAF81400E0608046F7
:1008D000D9F814002061FFF7D6FC05460E464046C5
:1008E000FFF7D1FC41EC100BCDE9005653EC102B77
:1008F00037A003F09BFA84F803B0277184F802B0A4
:1009000043A003F093FAE078002836D150A003F01A
:100910008DFA94ED030ADFED580A30EE200AD4ED8B
:10092000040A02F033FE01E002F0F4FA01F050FF95
:100930000028F9D0D9F81400FFF7A5FC05460E46AB
:10094000D046DAF81400FFF79EFC41EC100BCDE91D
:10095000005653EC102B49A003F068FA01F038FF61
:1009600058B1E77098ED050A54A084ED030A99ED9B
:10097000050A84ED040A03F059FAE078012821D130
:100980005BA003F053FAD4ED040A9FED640A94EDE2
:10099000031A70EEC00A31EE000A02F0F7FD01E022
:1009A00002F0B8FA01F014FF0028F9D001F010FFAE
:1009B000002807D05AA003F039FA84F804B084F86C
:1009C00003B0A770BDE8FC9F1C000020840000203D
:1009D000BB5BE8BDACE59091E58AA8E4BD9C5D20D9
:1009E000E8BDACE4B98BE5898DE59C88E695B03A25
:1009F00020E5B7A6E8BDAE20252E32662C20E58F77
:100A0000B3E8BDAE20252E32660D0A5544330000F2
:100A1000BB5BE8BDACE59091E58AA8E4BD9C5D2098
:100A2000E5BC80E5A78BE689A7E8A18CEFBC9AE539
:100A30008588E79BB4E8A18CE5868DE58FB3E8BD9A
:100A4000AC3930E5BAA65C720A55443300000000A8
:100A5000BB5BE8BDACE59091E58AA8E4BD9C5D2058
:100A6000E6ADA5E9AAA430EFBC9AE79BB4E8A18C57
:100A70005C720A55443300000080BB44BB5BE8BD98
:100A8000ACE59091E58AA8E4BD9C5D20E8BDACE4AE
:100A9000B98BE5908EE59C88E695B03A20E5B7A63F
:100AA000E8BDAE20252E32662C20E58FB3E8BDAE22
:100AB00020252E32660D0A5544330000BB5BE8BD8D
:100AC000ACE59091E58AA8E4BD9C5D20E6ADA5E982
:100AD000AAA430E5AE8CE68890EFBC8CE8BF9BE51D
:100AE00085A5E6ADA5E9AAA4310D0A554433000059
:100AF000BB5BE8BDACE59091E58AA8E4BD9C5D20B8
:100B0000E6ADA5E9AAA431EFBC9AE58FB3E8BDAC88
:100B10003930E5BAA65C720A554433000000C84477
:100B2000BB5BE8BDACE59091E58AA8E4BD9C5D2087
:100B3000E6ADA5E9AAA431E5AE8CE68890EFBC8CC1
:100B4000E58AA8E4BD9CE7BB93E69D9F5C720A55CD
:100B50004433000070B5114C00250126E079B0B98E
:100B6000012002F0F3FC0E489FED0E1A90ED050AED
:100B7000B43084ED0A0AD0ED050A30EE010AC4ED66
:100B8000090A70EEC10A02F001FDE671A57001F0DC
:100B90001FFE002801D0E571A67070BD1C0000206A
:100BA000840000200000A04370474FF4005000F084
:100BB000D7B9000010B504462DED028B0020C4E922
:100BC00000109FED088AA06084ED038A00F0D6FA39
:100BD000206184ED058A84ED068A84ED078ABDECE8
:100BE000028B10BD00000000016809684A6A42607B
:100BF0008168511AB1F5004F02DBA1F5803104E0A4
:100C000011F5004F01DA01F5803100EE101ADFED29
:100C1000120A134BB8EEC00A20EE200ADFED0F0ACD
:100C200020EE201AD3ED070A9FED0E0A60EE801A1F
:100C3000C1EE210A01EE101AF8EEC11A81EE801AF7
:100C400090ED050ADFED081A01EE210A80ED050A94
:100C50008260C0ED030A70470000704200007A44D1
:100C60001C00002000EC9F460000C84272B6FEE760
:100C700010B561280FD0642812D00DA003F0D6F86B
:100C8000012002F02DF84FF4FA7000F01DF911491F
:100C90000020C87010BD10A003F0C8F8022003E0C7
:100CA00014A003F0C3F80320BDE8104002F018B808
:100CB000BB5BE794B5E69CBA5D20E79BB4E8A18CEA
:100CC000E9809AE8BF87E8B7AFE58FA30D0A5544DE
:100CD0003300000048000020BB5BE794B5E69CBAF7
:100CE0005D20E5B7A6E8BDAC3930E5BAA65C720A6E
:100CF00055443300BB5BE794B5E69CBA5D20E58FB5
:100D0000B3E8BDAC3930E5BAA65C720A554433008D
:100D100010280FD006DC032810D008280CD00C288F
:100D200006D107E0182803D0302805D0C02807D006
:100D3000012006E0052004E0062002E0072000E094
:100D4000082001F0CDBF00002DE9F0472D4E91465F
:100D50000F464FF001080025A6F111042CE038469B
:100D600002F0ADFBA178052926D2DFE801F0030BE4
:100D7000182B0E00AA281FD184F802803070A4F826
:100D8000088019E021891F2902D3A570258113E06D
:100D90007054491C218155280ED1022008E0218978
:100DA0001F29F2D27054491C2181442802D103200A
:100DB000A07001E084F80280B7F804010028CED1C9
:100DC000BDE8F08721891F29DFD27054491C218199
:100DD0003328EFD18AB2A5700A494846FFF721FAB5
:100DE00026893223074909F806502289064801F06E
:100DF0002FFB3223022205A1034801F029FB2581A4
:100E00003046DDE711000020340600200D0A000006
:100E10002DE9F0410446876D00F0B0F9064694F8DC
:100E200035000025022806D08020606584F8345003
:100E30000120BDE8F0812068016821F01601016001
:100E40002068416921F080014161206C08B9A06CE3
:100E500020B12068016821F0080101602068016864
:100E600021F0010101600CE000F088F9801B0528E9
:100E700007D920206065032084F8350084F83450B9
:100E8000D7E720680068C007EED194F85C103F20D7
:100E90008840B860012084F8350084F83450002080
:100EA000C7E790F83510022903D080214165012061
:100EB0007047052180F835100068016821F00101B4
:100EC000016000207047000070B5044600F056F93C
:100ED0000546601C02D004480078044400F04EF936
:100EE000401BA042FAD370BD740000202DE9F041F0
:100EF0004FF40057B8420BD1114C0125207818B19E
:100F00000026012819D105E0257000F037F960604E
:100F1000BDE8F08100F032F96168401AB0F5FA7F5F
:100F2000F6D33946074800F01FF9012805D10648D5
:100F30002946057005A002F079FF2670E8E7000059
:100F40006C00002000080240490000206D656469C3
:100F5000636E655F74616B656E3A25640000000026
:100F6000044910B50A68024202D00860FFF7BEFFCC
:100F700010BD0000143C01402DE9F84FDFF8BCA182
:100F80000022012503264FF00F090AF1040BAAF1F4
:100F9000040E00BF0B6805FA02F42340A34270D18F
:100FA0000F7907F00307012F01D0022F16D18768B0
:100FB0004FEA420806FA08FC27EA0C07D1F80CC0F1
:100FC0000CFA08FC4CEA070CC0F808C04768A743B5
:100FD0000C79C4F3001494403C4344600C79E4431E
:100FE000A4070AD0C4684FEA420C06FA0CF7BC43C7
:100FF0008F6807FA0CF72743C7600C7904F00304E5
:10100000022C12D1D40800EB840CDCF820405707E6
:10101000FF0E09FA07F824EA0804D1F8108008FA4C
:1010200007F848EA0408CCF8208004684FEA420C2C
:1010300006FA0CF7BC430F7907F0030707FA0CF721
:10104000274307604C6814F4403F70D03C4C27683D
:1010500047F480472760246822F0030704F48044A3
:101060000094384C07EB040CDCF8084897074FEA6B
:10107000177809FA08F7BC43334FB84202D100276A
:1010800024E054E0314FB84201D101271EE0304F37
:10109000B84201D1022719E02E4FB84201D10327EF
:1010A00014E02D4FB84201D104270FE02B4FB84276
:1010B00001D105270AE02A4FB84201D1062705E0F1
:1010C000284FB84201D1072700E0082707FA08F7A0
:1010D0002743CCF80878DAF800405746D1F804C026
:1010E0009C435FEACC2C00D51C433C60DBF80040FD
:1010F0005F46D1F804C09C435FEA8C2C00D51C43AA
:101100003C60DEF800407746D1F804C09C435FEABB
:101110008C3C00D51C433C60084F083F3C68D1F82C
:1011200004C09C435FEACC3C00D51C433C60521C8D
:10113000102AFFF42FAFBDE8F88F0000083C0140F3
:1011400044380240003001400000024000040240E8
:1011500000080240000C024000100240001402404F
:1011600000180240001C02400069084000D0012025
:1011700070470AB1816170470904FBE70148806844
:101180007047000074000020024881680278114412
:1011900081607047740000200B4810B5016841F46D
:1011A00000710160016841F480610160016841F4EF
:1011B00080710160032000F06FF80F2000F006F846
:1011C00000F024F8002010BD003C024070B50D4D29
:1011D00004464FF47A712878B1FBF0F00A490968A7
:1011E000B1FBF0F000F00AFB48B9102C07D2002246
:1011F0002146501E00F030F800206C6070BD0120C8
:1012000070BD000074000020800000200A4808B56E
:10121000016841F480410160006800F48040009062
:101220000548001F016841F080510160006800F02E
:101230008050009008BD000044380240002809DBBF
:1012400000F01F02012191404009800000F1E020E0
:10125000C0F8001170470000F0B40E4B1B680C463C
:10126000C3F30223C3F10705042D00D90425191D7A
:10127000072901D2002300E0DB1E012606FA05F152
:10128000491E214099409E40761E16403143F0BCD5
:1012900002F0DCBD0CED00E0064900F00702086832
:1012A0004FF6FF03184040EA0220034A104308604B
:1012B000704700000CED00E00000FA052DE9F04752
:1012C0000E46050065D0DFF81481D8F80000F7B2AB
:1012D00000F00700B04207D288F80070D8F800008C
:1012E00000F00700B04254D128683D4C810712D568
:1012F000400703D5206840F4E050206028780007BC
:1013000003D5206840F4604020602068A96820F080
:10131000F000084320602878C0072DD03049686865
:101320000839012812D0022813D0032811D00968E7
:10133000890700292DDA216821F00301014321608A
:10134000FFF71CFF814641F2883A0EE009688903E5
:10135000EFE709688901ECE7FFF710FFA0EB09014F
:10136000514502D90320BDE8F0872068696800F084
:101370000C00B0EB810FEFD1D8F80010404601F01F
:101380000701B14207D90770006800F00700B042BA
:1013900001D00120E7E72878400705D52068E968F3
:1013A00020F4E050084320602878000706D5206824
:1013B000296920F4604040EAC100206000F038F85C
:1013C0002168084AC1F30311515CC840064908600E
:1013D00006480068FFF7FAFE0020C4E7003C024020
:1013E00008380240B0480008800000207800002043
:1013F0000448054900680968044AC1F38221515C28
:10140000C84070478000002008380240C0480008EB
:101410000448054900680968044AC1F34231515C37
:10142000C84070478000002008380240C0480008CB
:10143000154810B5006810F00C02144813D0411084
:10144000042A0FD0082A0ED10F4C241F22682368CB
:1014500002F03F025B0207D52068C0F38810A0FBB2
:10146000010106E0084610BD2168C1F38811A1FB07
:1014700000010023FEF7A4FE2168C1F30141491CCD
:101480004900B0FBF1F010BD083802400024F40020
:101490002DE9F84F04006ED02078DFF84C93C00798
:1014A000A9F104054AD009F104000168C1F38101E2
:1014B000012908D00068C0F3810002280AD1D9F8B8
:1014C0000000400206D52868800337D560680028F0
:1014D000E1D033E06068B0F5803F10D0B0F5A02FC8
:1014E000286810D020F480302860286820F48020FC
:1014F00028606068A8B1FFF741FE06460DE0286845
:1015000040F48030F4E740F480202860F7E700BF23
:10151000FFF734FE801B642873D828688003F7D552
:101520000CE0FFF72BFE064605E000BFFFF726FEA6
:10153000801B6428F0D828688003F7D42078DFF86F
:10154000AC8280074FF0000A3ED5A748001D016815
:1015500011F00C0F08D00068C0F3810002280BD1F5
:10156000D9F80000400207D42868800716D5E06843
:10157000012800D112E033E1E068B8B10120C8F8D9
:101580000000FFF7FBFD064605E000BFFFF7F6FD94
:10159000801B0228C0D828688007F7D528682169F1
:1015A00020F0F80040EAC10028600DE0C8F800A073
:1015B000FFF7E4FD064604E0FFF7E0FD801B02288C
:1015C0001FD828688007F7D42078000722D5864FD7
:1015D00087486169703771B101210160FFF7CEFD65
:1015E000064604E0FFF7CAFD801B022809D83868C8
:1015F0008007F7D50EE0C0F800A0FFF7BFFD064654
:1016000005E082E0FFF7BAFD801B02287DD838682C
:101610008007F7D42078400768D5DFF8CCB10027E1
:101620000BF13C0BDBF80000C0000BD4DBF8001022
:1016300041F08051CBF80010DBF80000012700F0EA
:10164000805000906B4E3068C00510D4306840F474
:1016500080703060FFF792FD009005E0FFF78EFD8F
:101660000099401A022850D83068C005F6D55E4E61
:10167000A0686C3601280FD00528306810D020F003
:1016800001003060306820F004003060A068B8B11C
:10169000FFF774FD00900FE0306840F00100F4E7C0
:1016A00040F004003060F7E7FFF768FD0099411A49
:1016B00041F28830814266D830688007F4D50EE068
:1016C000FFF75CFD009007E0FFF758FD0099411A15
:1016D00041F28830814256D830688007F4D42FB167
:1016E000DBF8001021F08051CBF80010A069C8B3DE
:1016F0003D49091D0968C1F3810102294AD0022828
:10170000504607D0C8F8600000E03CE0FFF736FD27
:1017100004463BE04746C8F86000FFF72FFD064649
:1017200005E000BFFFF72AFD801B02282BD82868A0
:101730008001F7D4D4E907010843A16A2E4A490879
:1017400002EB0141626A41EA8211084394F82C10CD
:1017500040EA0161C9F8001001203866FFF70EFD6C
:10176000044606E03EE000BFFFF708FD001B02282C
:1017700009D828688001F7D534E000BFFFF7FEFCE8
:10178000001B022802D90320BDE8F88F28688001D9
:10179000F4D427E00128F7D0D9F80000E26900F47A
:1017A000800191421CD1226A00F03F01914217D181
:1017B00047F6C071626A0140B1EB821F10D1A26A84
:1017C0004FF0FF3300F4403103EB5202B1EB024F14
:1017D00006D194F82C1000F07060B0EB016F01D0CE
:1017E0000120D1E70020CFE7043802400000474243
:1017F000800E4742007000400000FFFF10B5401E01
:10180000B0F1807F01D3012010BD4FF0E024606172
:101810000F21601702F01AFB0020A0610720206151
:10182000002010BD7047704770B590F83C20012A29
:1018300032D0012480F83C40022280F83D20036829
:101840005A689D6822F070060A6832435A60134B4A
:1018500002689A4214D0B2F1804F11D0104B9A42D4
:101860000ED0104B9A420BD00F4B9A4208D00F4B20
:101870009A4205D00E4B9A4202D00E4B9A4204D1A6
:10188000496825F080031943916080F83D400021AC
:1018900080F83C10084670BD022070BD0000014079
:1018A0000004004000080040000C0040000401401B
:1018B000004001400018004010B5040003D094F827
:1018C0003D0010B107E0012010BD002084F83C006D
:1018D000204600F01FF8022084F83D00211D2068FA
:1018E00001F05CFF012084F8460084F83E0084F893
:1018F0003F0084F8400084F8410084F8420084F8F6
:10190000430084F8440084F8450084F83D0000203A
:1019100010BD000008B501681448B1F1804F14D023
:10192000134A914220D1016841F002010160006830
:10193000002200F00200009011461D20FFF78CFCF1
:101940001D20BDE80840FFF779BC016841F00101A6
:1019500001600068002200F00100009011461C2088
:10196000FFF77AFC1C20ECE708BD0000403802407D
:101970000004004070B5044690F83C0000250128A2
:1019800017D0012684F83C60022084F83D002068CE
:10199000826822F0770222F47F4282600868502831
:1019A00038D00DDC20284FD005DC90B3102811D1A1
:1019B0004AE0022070BD302846D040280AD13BE0E2
:1019C00060282FD070280DD0B0F5805F03D0B0F51F
:1019D000005F12D0012584F83D60002084F83C00AF
:1019E000284670BDCB68D1E90121206801F04BFF8A
:1019F0002068816841F0770109E0CB68D1E90121D5
:101A0000206801F040FF2068816841F480418160D6
:101A1000E1E719E0CA684968206802F009F8502136
:101A2000206806E0CA684968206802F012F8602160
:101A3000206801F032FFCEE7CA684968206801F0EB
:101A4000F7FF40212068F4E7226801461046F0E7DE
:101A50002DE9F0410D46040003D094F83D0018B183
:101A600008E00120BDE8F081002084F83C00204619
:101A700000F040F8022084F83D002068816844F2BC
:101A8000070291438160211D206801F087FE2268D2
:101A900090689169166A2B68AF69034340F203307E
:101AA000814341EA0721A868EF6908434FF6FC41EA
:101AB0008843E96840EA0720014328692F6A00014A
:101AC00040EA0730084369686D6926F0AA0646EACD
:101AD0000515294393602268906154F8460B016212
:101AE000012004F81F09E0752076E0762077A075C4
:101AF0000020B7E730B587B0044614216846FEF7EA
:101B0000A9FB214D236800222048C0240221AB42BA
:101B100019D11E4B10331D6845F004051D601B686C
:101B200003F004030593036843F0020303600068B5
:101B30000094CDE9011200F00200CDE904100392F7
:101B4000694613481CE0134DAB421BD10F4B1433B5
:101B50001D6845F002051D601B6803F00203059334
:101B6000036843F0040303600068009400F004007D
:101B70000590CDE901120320CDE90320694606480E
:101B8000FFF7FAF907B030BD0008004030380240D6
:101B900000040240000401400008024070B590F8C3
:101BA0003E60044690F83F5090F8423090F8432051
:101BB000022021B104290ED0012E1BD114E0012EE8
:101BC00018D1012B16D184F83E0084F8420001227E
:101BD0000021206820E0012D0CD1012A0AD184F8CF
:101BE0003F0084F8430014E0012D03D1012B01D103
:101BF000012A01D0012070BD84F83E0084F83F0026
:101C000084F8420084F8430001220021206801F09A
:101C10002DFE01220421206801F028FE20680168C1
:101C200041F001010160002070BD70472DE9F041D5
:101C300004460068C66805694FF00007A90713D578
:101C4000B10711D5F91E0161012020772068806954
:101C50008007204602D0FFF7E8FF04E000F0A6F876
:101C6000204600F038F92777680716D5700714D595
:101C700021686FF0040008610220207720688069E5
:101C800010F4407F204602D0FFF7CFFF04E000F0C1
:101C90008DF8204600F01FF92777280715D5300763
:101CA00013D521686FF008000861042020772068B0
:101CB000C0698007204602D0FFF7B7FF04E000F0BC
:101CC00075F8204600F007F92777E80616D5F006E4
:101CD00014D521686FF01000086108202077206873
:101CE000C06910F4407F204602D0FFF79EFF04E059
:101CF00000F05CF8204600F0EEF82777E80708D0FF
:101D0000F00706D021686FF001000861204600F05E
:101D100047F9280608D5300606D521686FF08000FF
:101D200008612046FFF77EFD680608D5700606D5D7
:101D300021686FF040000861204600F032F9A806E3
:101D40000AD5B00608D521686FF02000086120464A
:101D5000BDE8F041FFF767BDBDE8F08110B586B082
:101D6000044614216846FEF775FA2068B0F1804FEA
:101D700015D10C480021026842F00102026000689F
:101D800000F001000590032000900220CDE9010140
:101D90000120CDE9031069460348FFF7EDF806B0CE
:101DA00010BD00003038024000000240704770B59E
:101DB000044690F83C0000260D4601280FD0012073
:101DC00084F83C006AB1042A1DD0082A2FD00C2ABE
:101DD0003FD00126002084F83C00304670BD022030
:101DE00070BD206801F062FD2068816941F0080142
:101DF00081612068816921F0040181612068816925
:101E00002A69114311E0206801F080FD2068816992
:101E100041F4006181612068816921F48061816100
:101E2000206881692A6941EA02218161D2E720683C
:101E300001F0A2FD2068C16941F00801C16120687C
:101E4000C16921F00401C1612068C1692A69114397
:101E500011E0206801F0C4FD2068C16941F400610F
:101E6000C1612068C16921F48061C1612068C169D4
:101E70002A6941EA0221C161ACE710B5040003D030
:101E800094F83D0010B107E0012010BD002084F857
:101E90003C00204600F01EF8022084F83D00211D81
:101EA000206801F07BFC012084F8460084F83E00A5
:101EB00084F83F0084F8400084F8410084F8420030
:101EC00084F8430084F8440084F8450084F83D0019
:101ED000002010BD7047704710B50446022249B17A
:101EE00004290ED0082913D094F84100012816D0F7
:101EF000012010BD94F83E000128F9D184F83E205D
:101F00000FE094F83F000128F2D184F83F2008E068
:101F100094F840000128EBD184F8402001E084F8D7
:101F200041200122206801F0A1FC16492068164AD0
:101F3000884201D0904203D1436C43F40043436490
:101F40002068884213D0B0F1804F10D00F498842EA
:101F50000DD00F4988420AD00E49884207D09042DE
:101F600005D00D49884202D00C49884204D18168CD
:101F700001F00701062903D0016841F00101016069
:101F8000002010BD0000014000040140000400409A
:101F900000080040000C00400040014000180040D4
:101FA0007047704770477047F8B501680446086885
:101FB000CA684B6910F00F0F4FF0000559D003F0BD
:101FC000010602F49077374365D0C10705D0D105EB
:101FD00003D5616C41F001016164410705D5D90762
:101FE00003D0616C41F002016164810705D5D90716
:101FF00003D0616C41F004016164010707D502F070
:102000002001314303D0616C41F008016164616CCF
:1020100000293AD0800604D5900602D5204601F06A
:1020200058FD20684069616CC0F38010090700D436
:1020300060B3204601F026FD20684069400621D5A6
:102040002068143050E8001F21F0400140E80012E1
:10205000002AF5D1E06BA8B172490165E06BFEF78B
:1020600020FF002811D0E06B016D01B0BDE8F04009
:10207000084783060FD593060DD52046BDE8F840E6
:1020800001F027BD2046FFF78EFFF8BD2046FFF781
:102090008AFF6564F8BD266B2023012E7ED1C6061B
:1020A0007CD5D6067AD508684868009048694FF014
:1020B000020640064DD5E26B106840684FF4807709
:1020C0000004000C3AD0A18D814237D9E085D06957
:1020D000B8422DD020680C3050E8001F21F48071E8
:1020E00040E80012002AF5D12068143050E8001FA3
:1020F00021F0010140E80012002AF5D120681430D7
:1021000050E8001F21F0400140E80012002AF5D1FC
:1021100084F84230256320680C3050E8001F21F01D
:10212000100140E80012002AF5D1E06BFEF770FEC6
:102130006663A08DE18D401A81B206E0A18D8142D7
:10214000A8D1D069B842A5D166632046FFF72AFF1F
:10215000F8BDA08DE18D401A81B2E08D0028F7D046
:102160000029F5D020680C3050E8002F22F490723E
:1021700040E80027002FF5D12068143050E8002FE8
:1021800022F0010240E80027002FF5D184F8423008
:10219000256320680C3050E8002F00E006E022F0B4
:1021A000100240E80023002BF3D1CDE705062BD524
:1021B000150629D594F841002128C9D1A068B0F5A9
:1021C000805F01D12069B0B1206A411C2162216881
:1021D00000784860E08C401E0004000CE084B7D119
:1021E0002068C16821F08001C1602068C16841F0A9
:1021F0004001C160F8BD206A0088C0F30800486053
:10220000206A801C2062E5E74006F3D55006F1D530
:10221000CA68204622F04002CA6084F8413000F0CB
:1022200067F9F8BD773A000870B5040004D094F857
:102230004100002510B106E0012070BD84F8405037
:10224000204600F023F8242084F841002068C1686B
:1022500021F40051C160204601F09CFC2068016916
:1022600021F4904101612068416921F02A01416116
:102270002068C16841F40051C1606564202084F881
:10228000410084F842006563002070BDF0B587B05E
:10229000044614216846FDF7DDFF3D4A266800210B
:1022A0003C48022303240725964222D1394A14329E
:1022B000166846F010061660126802F010020592C9
:1022C000026842F001020260006802AA00F0010008
:1022D000059082E832006002CDE9000369462E488D
:1022E000FEF74AFE002211462520FEF7B5FF252005
:1022F00024E0284A294F1032BE4223D1166846F402
:1023000000361660126802F400320592026842F04C
:1023100008020260006802AE00F00800059086E83E
:1023200032006020CDE9000369461D48FEF724FE17
:10233000002211462620FEF78FFF2620FEF77EFFA3
:1023400007B0F0BD174FBE42FAD1166846F480269A
:102350001660126802F480220592026842F00202BE
:102360000260006802AE00F00200059086E83200CC
:102370004FF44060CDE9000369460B48FEF7FCFDD1
:10238000002211462720FEF767FF2720D6E700002E
:10239000001001403038024000000240004400407C
:1023A000000C0240004800400004024090F8423017
:1023B000202B01D00220704721B11AB10023036302
:1023C00001F06EBC0120704770B504461A48844283
:1023D0000DD11A4DB5F80001295C284601F083F8AB
:1023E000B5F80001012241191348FFF7DFFF144837
:1023F00084420DD1134DB5F80001295C284601F047
:1024000072F8B5F80001012241190D48FFF7CEFF1F
:102410000D4884420FD10D4CB4F80001215C2046D8
:1024200001F061F8B4F800010119BDE87040012223
:102430000548FFF7BBBF70BD34060020EC0100204B
:102440007C060020F2020020C4060020F8030020D1
:102450002DE9F843044690F84100984616460D468B
:10246000202802D00220BDE8F88385B17EB100208B
:102470006064212084F84100FEF780FEA684814636
:10248000E684A0682027B0F5805F02D003E0012039
:10249000E9E7206910B12E4600250EE000260CE089
:1024A0008021204601F017FCA8B9C6B116F8010B2F
:1024B00021684860E08C401EE084E08C4B464FF081
:1024C0000002CDF800800028EAD14FF040012046FC
:1024D00001F001FC40B184F841700320C3E735F8F6
:1024E000020BC0F30800E3E784F841700020BAE76C
:1024F0007047000070B5002000F0F2FB32A001F040
:1025000095FC3D4C00253C4A3C493D48FEF71CFCEF
:1025100000B165780A20FEF7D7FC662D01D0652D45
:10252000F1D1294637A001F081FC334C1A3C662DCD
:1025300002D0652D34D036E06079002833D138A040
:1025400001F074FC3F4D012208212846FEF711FEE0
:10255000002000F0C5FB4FF47A7602E03046FEF72B
:10256000B3FC60780028F9D0002060700246082192
:102570002846FEF7FEFD34A001F058FC0125E57069
:10258000E07810B1042000F0ABFB34A001F04EFC69
:10259000012236A11A4800F0BBFF6571022006E057
:1025A0006079012805D032A001F040FC062020709F
:1025B00070BD39A001F03AFC012204214148FEF728
:1025C000D8FD0520F3E70000BBE588B0E8BEBEE714
:1025D0009BAEE79A84E59CB0EFBC8CE7AD89E5BE85
:1025E00085E88DAFE59381E6938DE4BD9C2E2E2E7C
:1025F0000D0A55443300000062000020F202002062
:102600007C060020BBE694B6E588B0E591BDE4BB4E
:10261000A43A20272563270D0A5544330000000003
:10262000BBE588B0E8BEBEE79785E688BFEFBC8C07
:10263000E7AD89E5BE85E58F96E88DAF5C720A55FA
:102640004433000000100240BB7374617274206751
:102650006F206261636B0D0A55443300BB676F20C6
:102660006261636B0D0A5544330000006200000094
:10267000BBE99499E8AFAFE591BDE4BBA4E68896C9
:10268000E78AB6E68081E4B88DE58CB9E9858D0DE1
:102690000A55443300000000BBE8BF94E59B9EE868
:1026A0008DAFE688BFE38082E4BBBBE58AA1E5AEDF
:1026B0008CE68890EFBFBD3FEFBFBD5C720A55440A
:1026C000330000000004024070B5002000F008FB59
:1026D0001BA001F0ABFB21A001F0A8FB2D4A2E4965
:1026E0002E48FEF731FB04460A20FEF7EDFB002CD6
:1026F000F4D0284845782AA0294601F097FB254CBC
:10270000153C607930B92279142A03D22B488554BC
:10271000521C22710126E6700020A0710AE0A07907
:1027200018B92846FEF7A4FAA67100F0F3FB0A20B8
:10273000FEF7CAFBE0780028F1D10220207070BDBE
:10274000BBE6A380E6B58BE588B0E8B7AFE58FA31D
:10275000E380825C720A554433000000BBE7AD8918
:10276000E5BE85E69DA5E887AAE6A091E88E93E6FA
:10277000B4BEE79A84E8BDACE59091E591BDE4BBB9
:10278000A428772F612F64292E2E2E0D0A5544334D
:10279000000000005D000020F20200207C06002006
:1027A000BBE694B6E588B0E591BDE4BBA43A20272A
:1027B0002563270D0A55443300000000FE04002065
:1027C000FEE7000001488078704700001C000020F0
:1027D0002DE9F04133482DED028B82B0407801287D
:1027E00058D1314FD7F8AC00FDF74DFDA7F1B40437
:1027F00005460E46D4F8AC00FDF745FD41EC100B44
:10280000CDE9005653EC102B28A001F00FFB6069B6
:10281000C4F8AC0080467869C7F8AC00FDF733FD1A
:1028200005460E464046FDF72EFD41EC100BCDE966
:10283000005653EC102B1DA001F0F8FA94ED2A0A73
:10284000D4ED2B0A30EE600AD7ED2B0AF0EEC08AE9
:1028500097ED2A0A30EE600AB0EEC08A18EE100A30
:10286000FDF711FD04460D4618EE900AFDF70BFD2D
:1028700041EC100B1BA053EC102BCDE9004501F0EF
:10288000D5FA18EE900A2549884209DC18EE100A9C
:10289000884205DC012002B0BDEC028BBDE8F0816E
:1028A0000020F8E71C00002038010020BB5BE79403
:1028B000B5E69CBA5D20E5B7A6E8BDAEE59C88E626
:1028C00095B03A20252E32662C20E58FB3E8BDAEB8
:1028D000E59C88E695B03A20252E32660D0A5544CF
:1028E00033000000BB5BE794B5E69CBA5D20E5B71A
:1028F000A6E8BDAEE8AFAFE5B7AE3A20252E32660A
:102900002C20E58FB3E8BDAEE8AFAFE5B7AE3A2017
:10291000252E32660D0A5544330000000000204188
:1029200005480189002906D0C178002903D1018119
:102930008078FEF7EDB97047480000202DE9F0439C
:1029400087B014216846FDF785FC3B4800240168E8
:1029500041F010010160016801F01001059101686A
:1029600041F004010160016801F004010591016872
:1029700041F080010160016801F08001059101686A
:1029800041F001010160016801F001010591016858
:1029900041F002010160016801F002010591016846
:1029A00041F0080101600068244F00F00800059024
:1029B000002208213846FEF7DCFBDFF88480002285
:1029C00078214046FEF7D5FBDFF8789000221421ED
:1029D0004846FEF7CEFB08200125022603948DE829
:1029E000610069463846FEF7C7FA680300904FF465
:1029F0008810CDE9010669461348FEF7BDFA782034
:102A00000090CDE90154694640460394FEF7B4FABC
:102A100014200090CDE90154694648460394FEF71E
:102A2000ABFA002201212820FEF716FC2820FEF731
:102A300005FC07B0BDE8F0833038024000100240CA
:102A400000000240000402400008024010B58EB0B1
:102A500000240794089409940A940B941C21684656
:102A60000C94FDF7F7FB23484FF0804101605321A0
:102A7000C0E901146321C0E9031480218161FEF7DC
:102A80001BFF08B1FEF7F2F84FF48050079007A93A
:102A90001848FEF76FFF08B1FEF7E8F81548FFF792
:102AA000ECF908B1FEF7E2F80B940BA911480C946D
:102AB000FEF7BAFE08B1FEF7D9F86020CDE90004B0
:102AC000022002900022694604940A48FFF76FF939
:102AD00008B1FEF7CBF80422694606480294FFF7D6
:102AE00066F908B1FEF7C2F80248FFF737F90EB0F1
:102AF00010BD00001405002010B586B00024174852
:102B00000094019402940394049413490594016081
:102B10005321C0E9011440F2E731C0E903148021D8
:102B20008161FEF7C9FE08B1FEF7A0F84FF48050AE
:102B3000009069460948FEF71DFF08B1FEF796F8B8
:102B4000049404A905480594FEF76EFE002801D000
:102B5000FEF78CF806B010BD000400405C050020B4
:102B600010B58CB024216846FDF774FB002415488D
:102B7000099413490A94C0E900144FF6FF71C0E9A3
:102B80000241046184610120CDE90004CDE9020421
:102B90000494CDE90540079469460A480894FEF775
:102BA00057FF08B1FEF762F8099409A905480A948D
:102BB000FEF73AFE002801D0FEF758F80CB010BD21
:102BC00000080040A405002010B58CB02421684600
:102BD000FDF740FB00241648099414490A94C0E903
:102BE00000144FF6FF71C0E9024104614461846141
:102BF0000120CDE90004CDE902040494CDE90540AB
:102C0000079469460A480894FEF722FF08B1FEF7C8
:102C10002DF8099409A906480A94FEF705FE002834
:102C200001D0FEF723F80CB010BD000000040140F5
:102C3000EC0500200C4810B50A4901604FF4E13161
:102C40004160002181600C22C160C0E904128161F1
:102C5000C161FFF7E9FA002803D0BDE81040FEF794
:102C600005B810BD00100140340600200C4810B516
:102C70000A4901604FF4E1314160002181600C227A
:102C8000C160C0E904128161C161FFF7CDFA00287B
:102C900003D0BDE81040FDF7E9BF10BD004400407F
:102CA0007C0600200C4810B50A4901604FF4E13160
:102CB0004160002181600C22C160C0E90412816181
:102CC000C161FFF7B1FA002803D0BDE81040FDF75D
:102CD000CDBF10BD00480040C4060020FEE7000044
:102CE00070B50024314D092859D2DFE800F0050BFA
:102CF000373D4E131D252D002DA001F097F8FDF74F
:102D00006FFD29E030A001F091F8DFED350A9FED6D
:102D1000350A06E034A001F089F8DFED3A0A9FEDAC
:102D20003A0AFDF733FD17E038A001F07FF8DFED38
:102D30003E0A9FED3E0AF4E73DA001F077F8DFED93
:102D4000440A9FED440AECE743A001F06FF8DFED81
:102D50004A0A9FED4A0AE4E7EC7070BD48A001F012
:102D600065F8FDF74DFD15E04CA001F05FF8FDF7AB
:102D70009BFDFFF727FD0028EFD0EC70FDF730FD3D
:102D8000BDE870404CA001F051B852A001F04EF8DF
:102D9000FDF7E0FEFFF716FD0028DDD170BD53A062
:102DA00001F044F8FDF70AFDD6E7000048000020D6
:102DB000BB5BE794B5E69CBA5D20E5819CE6ADA2DD
:102DC0000D0A554433000000BB5BE794B5E69CBA9E
:102DD0005D20E5898DE8BF9B0D0A55443300000056
:102DE000000016C300001643BB5BE794B5E69CBA2F
:102DF0005D20E8BDBBE5BEAEE5B7A6E8B0830D0A31
:102E000055443300000011C300001143BB5BE7943D
:102E1000B5E69CBA5D20E8BDBBE5BEAEE58FB3E884
:102E2000B0830D0A5544330000001BC300001B4350
:102E3000BB5BE794B5E69CBA5D20E5A4A7E69BB230
:102E4000E7BABFE5B7A6E8BDAC5C720A55443300EB
:102E500000000CC300000C43BB5BE794B5E69CBAD2
:102E60005D20E5A4A7E69BB2E7BABFE58FB3E8BD56
:102E7000AC5C720A55443300000020C300002043BC
:102E8000BB5BE794B5E69CBA5D20E58E9FE59CB000
:102E9000E5B7A6E8BDAC0D0A55443300BB5BE7942B
:102EA000B5E69CBA5D20E58E9FE59CB0E58FB3E862
:102EB000BDAC0D0A55443300BB5BE794B5E69CBA44
:102EC0005D20E58FB3E8BDACE5AE8CE688900D0AD9
:102ED00055443300BB5BE794B5E69CBA5D20E68EB3
:102EE00089E5A4B40D0A554433000000BB5BE794A8
:102EF000B5E69CBA5D20E69CAAE79FA5E58AA8E412
:102F0000BD9CEFBC8CE5819CE6ADA25C720A554489
:102F1000330000002DE9F041FEF730F9314C054651
:102F20002078002840D060782F4E0028606906F194
:102F3000B407A5EB000000EE100AB8EE400A84EDDD
:102F4000070A33D0A0692949281A00EE900A10EE2A
:102F5000100AF8EE600A8842C4ED080A14DB96ED08
:102F6000280A304600F052F997ED280A384600F05A
:102F70004DF9B6F9B010002000F0C0FBB7F9B01061
:102F8000012000F0BBFB65611949206A88420BDB18
:102F900096ED2A0A144800F01BF9134897ED2A0A07
:102FA000B43000F015F9A561BDE8F08110EE100A0B
:102FB00010498842F8DB96ED280A0B4800F026F904
:102FC000094897ED280AB43000F020F9B6F9B0109E
:102FD000002000F093FBB7F9B010012000F08EFB49
:102FE0006561E1E71C000020840000200000204112
:102FF000000020420000F04138B51448016841F05B
:10300000010101600068124C00F0010000900022F4
:1030100010212046FEF7ADF8002240212046FEF7A1
:10302000A8F8002208212046FEF7A3F8002220215C
:103030002046FEF79EF800210648FEF74DFFBDE84A
:10304000384004210348FEF747BF000030380240F3
:10305000000002401405002030B5134987B009680C
:10306000C96A8CB2611C48436421B0FBF1F085B29F
:10307000A54200D925461C216846FDF7EBF86020E3
:10308000CDE90005002002900246049069460648FA
:10309000FEF78DFE08B1FDF7E9FD00210248FEF7BD
:1030A0001BFF07B030BD00001405002010B53D49DE
:1030B0003D482DED068BFDF77DFD3B483B49B43087
:1030C000FDF778FD9FED3A8ADFED3A8A9FED3A9A57
:1030D000DFED3A9A9FED3AAA3348F1EE042AB0EEBA
:1030E000482AF0EE681AB0EE491AF0EE690AB0EE1E
:1030F0004A0A203000F038F92B48F1EE042AB0EEED
:10310000482AF0EE681AB0EE491AF0EE690AB0EEFD
:103110004A0AD43000F028F99FED2A8A2248F0EEBE
:10312000082AB2EE042AF0EE681AB0EE481AF0EE61
:10313000480AB2EE040A603000F016F9F0EE082AF0
:10314000B2EE042AF0EE681AB0EE481AF0EE480A21
:10315000B2EE040A1C4800F007F91348002180ED84
:10316000288A80ED298A80ED2A8A80ED2B8A80F8D2
:10317000B210B43080ED288A80ED298A80ED2A8A49
:1031800080ED2B8A80F8B2103C210648FEF706FD40
:103190003C210648FEF702FD0C4901200870BDECF9
:1031A000068B10BDA405002084000020EC05002043
:1031B000000016430000C842B81E053E3D0A573EB7
:1031C0000AD7A33C00000000980100201C0000204A
:1031D00010B5B0EE402A0446FDF706FD84ED2A2A1C
:1031E00094ED050A04F1600084ED2B0A84ED1B2A9E
:1031F00000F052F8BDEEC00A10EE100A00B200EE68
:10320000100AB8EEC00A84ED280A10BD10B5B0EE61
:10321000402A0446FDF7E8FC84ED282A94ED030AD1
:1032200004F1200084ED290A84ED0B2A00F034F823
:10323000BDEEC00A10EE100AA4F8B00010BD0000E8
:1032400030B5134987B00968C96A8CB2611C48431C
:103250006421B0FBF1F085B2A54200D925461C21BE
:103260006846FCF7F7FF6020CDE9000500200290DA
:103270000490042269460648FEF799FD08B1FDF75F
:10328000F5FC04210248FEF727FE07B030BD000020
:1032900014050020FEE7000080ED040AD0ED030ACB
:1032A00030EEC00A80ED060AD0ED0F0AB0EEC00A7B
:1032B000B4EEE00AF1EE10FA03D29FED290A80ED98
:1032C000060AD0ED000A90ED060A264A60EE801A42
:1032D000F0EEC00A10EE901A914215DDD0ED080A0A
:1032E00070EE800AC0ED080A90ED0E1AF4EEC10AE5
:1032F000F1EE10FA06DCB1EE411AF4EEC10AF1EE7D
:1033000010FA01D280ED081AD0ED010A90ED081AEA
:1033100060EE810A90ED071A30EE411A71EEA00AB4
:1033200080ED091A90ED022A22EE011A70EE810A50
:10333000C0ED050A90ED0B1AF4EEC10AF1EE10FA99
:1033400006DC90ED0A1AF4EEC10AF1EE10FA01D291
:1033500080ED051A80ED070A90ED050A7047000020
:1033600000000000CDCCCC3D10B504462DED028B05
:10337000F0EE628AB0EE428A80EC030A9FED110AF9
:1033800080ED030A80ED040A80ED050A80ED060A4F
:1033900080ED070A80ED080A80ED090AB1EE610AA6
:1033A00080ED0A0AC0ED0B1AFDF7E8FE206301204C
:1033B00084F8340084ED0E8AC4ED0F8ABDEC028BD4
:1033C00010BD00000000000010B59FED080A044683
:1033D00080ED060A80ED070A80ED080A80ED090AF3
:1033E00080ED050AFDF7CAFE206310BD0000000055
:1033F00070470000012202A1024800F089B80000D5
:10340000720000007C06002010B5124A12491348D1
:10341000FDF79AFCD0B10F490E4C4978103C662953
:1034200007D0652905D0632908D02278022A0BD05D
:103430000CE00BA000F0FAFC042003E012A000F066
:10344000F5FC0320207010BDA1702081BDE8104064
:1034500000F080BC58000020F20200207C06002012
:10346000BBE68EA5E694B6E588B0E79BAEE79A8406
:10347000E59CB0E4BFA1E58FB73A20272563270D6F
:103480000A55443300000000BBE68EA5E694B6E57D
:1034900088B0E8B7AFE58FA3E4BFA1E58FB75C7252
:1034A0000A554433000000000021A0F80011A0F8E4
:1034B0000211A0F804114FF48071FCF7CBBEB0F8F4
:1034C000042100216AB1B0F80211B0F80221415C78
:1034D000521CD2B2A0F80221B0F80421521EA0F86A
:1034E000042108467047B0F80421FF2A0DD8B0F82F
:1034F00000218154B0F80011491CC9B2A0F8001194
:10350000B0F80411491CA0F804117047704700007E
:103510002DE9F04115460E464FF0FF34074623468D
:1035200001220949FEF794FF23462A4631463846D0
:10353000FEF78EFF23463846BDE8F04102490322DC
:10354000491CFEF785BF0000AC48000810B50446D2
:103550000C484178A14213D044700B48FFF734FF68
:103560000948B430FFF730FF012C09D1064840303C
:10357000FFF72AFF0448BDE81040F430FFF724BFEE
:1035800010BD00001C000020A4000020034880EDB6
:103590002A0AB430C0ED2A0A7047000084000020D7
:1035A000034880ED280AB430C0ED280A70470000B7
:1035B00084000020FDF7E8BD30B593B030216846A7
:1035C000FCF748FE14210CA8FCF744FE1D4800251A
:1035D000016841F080510160006800F08050119056
:1035E0001948016841F4804101600068022400F438
:1035F0008040119001200090000401908001CDE9ED
:10360000064008AA0420A82182E813000B9068460F
:10361000FDF73EFF08B172B6FEE70CA90F2081E866
:1036200031004FF4A0500F904FF4805010900521BE
:103630000CA8FDF743FE002801D072B6FEE713B0D8
:1036400030BD000040380240007000400248016870
:1036500041F470010160704788ED00E010B5184832
:10366000FFF722FF1748FFF71FFF1748FFF71CFF60
:103670001348B0F80011012201441448FEF796FEE9
:103680001048B0F80011012201441148FEF78EFEE7
:103690000D48B0F80011012201440E48FEF786FEE5
:1036A000FFF7AAFCFFF702FD0BA000F0BFFBFDF740
:1036B00085F811490020087048710871C87010BD64
:1036C000EC010020F2020020F80300203406002064
:1036D0007C060020C4060020BB5BE794B5E69CBADC
:1036E0005D20E5889DE5A78BE58C96E5AE8CE688A8
:1036F000905C720A554433004800002070B564297C
:1037000001DD642107E06FF06302914201DA1146A6
:1037100003E0002901DB0D4600E04D42184C40B1AA
:1037200000291EDD012208212046FDF722FD00228E
:103730001DE0002906DD012210212046FDF719FDBC
:10374000002205E0002210212046FDF712FD012293
:1037500040212046FDF70DFDE8B2BDE87040FFF7BF
:103760007BBC002208212046FDF703FD0122202119
:103770002046FDF7FEFCE8B2BDE87040FFF760BDF3
:10378000000002400148FEF751BA00001405002075
:103790000148FEF74BBA00005C050020F0B5026856
:1037A000274B284D284E294F294C4FF0804C9842EA
:1037B00009D0604507D0A84205D0B04203D0B84236
:1037C00001D0A04204D122F0700E4A6842EA0E02F3
:1037D00098421BD0604519D0A84217D0B04215D0EE
:1037E000B84213D0A04211D01A4DA8420ED01A4DA3
:1037F000A8420BD0194DA84208D0194DA84205D0B7
:10380000184DA84202D0184DA84203D122F44075A9
:10381000CA682A434D6922F080022A438D68C56236
:103820000D688562984201D0A04201D10969016307
:10383000016841F004010160012141610260F0BDB5
:10384000000001400004004000080040000C00405F
:103850000004014000400140004401400048014094
:1038600000180040001C00400020004010B501F08E
:103870001F030121046A99408C430462016A9A4043
:103880001143016210BD10B5846842EA032224F49A
:103890007F440A432243826010BD826822F0700296
:1038A0000A4342F00701816070470000F0B5036AE7
:1038B000026A22F00102026242688469124E24F018
:1038C00073050C682C4323F002058B682B430D4DC8
:1038D000A84201D0B04205D123F00807CB683B4392
:1038E00023F00403A84201D0B04205D14D6922F46F
:1038F000407215438A692A43426084614968416382
:103900000362F0BD0000014000040140F0B5026A0E
:10391000036A23F010030362436884690D6824F48A
:10392000E64444EA05248D6822F0200242EA0512AA
:103930000F4D104EA84201D0B04206D1CF6822F000
:10394000800242EA071222F04002A84201D0B042AF
:1039500007D14D6923F4406343EA85038D6943EA47
:10396000850343608461496881630262F0BD0000A1
:103970000000014000040140F0B5026A036A23F42C
:10398000807303624368C46922F4007224F07305F3
:103990000C68124E2C438D6842EA05220E4DA84257
:1039A00001D0B04206D1CF6822F4006242EA072279
:1039B00022F48062A84201D0B04207D14D6923F4BD
:1039C000405343EA05138D6943EA05134360C4611C
:1039D0004968C1630262F0BD00000140000401407B
:1039E00030B5046A026A22F4805202624268C369F6
:1039F0000D6823F4E64343EA05238D6824F400545C
:103A000044EA0534084DA84202D0084DA84204D12A
:103A10004D6922F4804242EA85124260C3614968DE
:103A20000164046230BD0000000001400004014058
:103A300010B5036A046A24F001040462846924F066
:103A4000F00444EA021423F00A020A438461026289
:103A500010BD10B5036A046A24F01004046284697E
:103A600023F0A00324F4704444EA023243EA011133
:103A70008261016210BD10B5806B0021C185FEF727
:103A800092FA10BD01680C3151E8002F22F49072B7
:103A900041E80023002BF5D10168143151E8002FD3
:103AA00022F0010241E80023002BF5D1016B01292E
:103AB00009D101680C3151E8002F22F0100241E8D1
:103AC0000023002BF5D1202180F842100021016352
:103AD000704708B590F84210222901D0022008BD95
:103AE00082684FF480539A4201D1016921B1816A01
:103AF0009A421BD04AB10AE00268816A5268C2F356
:103B000008020A80816A891C08E0026972B10268B1
:103B1000526802F07F020A70816A491C8162C18D7D
:103B2000491E0904090CC18503D01BE002685268D4
:103B3000F1E70168CA6822F02002CA600168CA6819
:103B400022F48072CA6001684A6922F001024A6167
:103B5000202180F8421000214163026B012A03D02A
:103B6000FEF732FC002008BD016301680C3151E80A
:103B7000002F22F0100241E80023002BF5D101684C
:103B80000A68D20602D50A6849680091818DFEF75D
:103B900009FAE7E770B5044600680169E26821F4B4
:103BA0004051114301612169A068E26908436169DC
:103BB000114308432168CA6849F20C639A430243DF
:103BC000CA6020684169A26921F4407111434161D2
:103BD00031492068884202D03049884202D1FDF73D
:103BE00017FC01E0FDF704FCE269002319216425BC
:103BF0003226B2F5004F626828D0A0FB0101930F76
:103C00009200FCF7DDFA0146B0FBF5F06FF0180208
:103C1000504301EB800006EB0010B0FBF5F000F024
:103C2000F002B1FBF5F002EB0012B1FBF5F06FF022
:103C30001803584301EB800006EB0010B0FBF5F0D1
:103C400000F00F0021681044886070BDA0FB0101E6
:103C500092185B41FCF7B4FA0146B0FBF5F00201A3
:103C6000B1FBF5F06FF01803584301EB800006EB51
:103C7000C000B0FBF5F000F0F80002EB4002B1FB31
:103C8000F5F0584301EB800006EBC000B0FBF5F007
:103C900000F00700D6E700000010014000140140CA
:103CA00081628285C28500214164222180F8421010
:103CB000016921B10168CA6842F48072CA60016872
:103CC0004A6942F001024A610068C16841F020017E
:103CD000C160002070472DE9F843984617460D460D
:103CE0000446089E24E0701C22D0FDF747FAA0EBA2
:103CF0000800B0421AD8CEB12068C168490717D56C
:103D0000802D15D0402D13D00168C94309070FD469
:103D100001680025406800902046FFF7B3FE0820A8
:103D2000606484F840500120BDE8F8830320FBE77D
:103D30002068006835EA000004D00020B842D2D0E4
:103D40000020F1E70120F9E70148FEF72DB9000056
:103D500034060020FEB5264E0025A6F10C04254FA2
:103D600022E02448FFF7ABFB217805291CD2DFE8CD
:103D700001F0030815202600AA2815D10120207083
:103D800011E0552806D0A188042905D27054491C99
:103D9000A18009E0022004E0257005E044280CD150
:103DA0000320207000E0A580B7F804010028D8D1D6
:103DB000FEBD332801D10420F3E72570F3E7A08886
:103DC0000DA135540A48FCF750FA48B90CA132232A
:103DD00007C98DE807000A2269460C48FEF738FB40
:103DE0003223042202490948FEF732FBE5E70000CE
:103DF0000C000020EC01002075736172743100002A
:103E00007573617274316F6B0D0A00003406002007
:103E10000148FEF7C9B800007C0600200148FEF703
:103E2000C3B80000C4060020FEE700000FB4054B35
:103E300010B503A9044A029800F0EAF810BC5DF836
:103E400014FB000041470008680000200907090E24
:103E5000002804DB00F1E02080F80014704700F037
:103E60000F0000F1E02080F8141D704702E008C840
:103E7000121F08C1002AFAD170477047002001E0E4
:103E800001C1121F002AFBD1704700002DE9FF5F1E
:103E900082B00021DDE90430020DDDF840B00343BB
:103EA00018D044F61050A2F2FF3242431514119874
:103EB00001281FD0A5EB0B00401C5FEA000A4FF061
:103EC00000064E4FDFF83891B046504615D5CAF17E
:103ED000000413E0119801244AA3012801D16FEADC
:103EE0000B010298119AC0E90031C0E9024206B004
:103EF000BDE8F09FCBF10000DFE704460021404A17
:103F0000491842EB0450CDE9001012E0E00707D059
:103F100032463B4640464946FCF7A4FA804689466D
:103F200032463B4610461946FCF79CFA06460F46B9
:103F30006410002CEAD1DDE90401DDE90023BAF1C7
:103F4000000F06DAFCF78EFA42464B46FCF78AFA77
:103F500005E0FCF7F9FA42464B46FCF7F5FA044651
:103F60000E460022284BFCF777FB03D84FF0FF30BA
:103F7000014607E00022254B20463146FCF7CBF9ED
:103F8000FCF751FB102409E0002C0ADB0A22002375
:103F9000FCF716F9039B30321A55641E50EA0102F1
:103FA000F2D1641C039AC4F111031444119A012A3A
:103FB00003D0012208430DD10AE0084304D00020B9
:103FC0004FF0110B119072E7A3EB0B056D1E0DE086
:103FD0005B4504DD4FF0000205F1010504E003DA62
:103FE0004FF00002A5F10105002AECD002981199CA
:103FF000C0E90231C0E9004579E700000000144043
:104000000000F03F300000000000F0430000E03FFF
:104010002DE9FF4F95B09B468946064600250FE2E5
:10402000252877D100242746F84A0121059400E08D
:10403000044316F8013F203B01FA03F01042F7D188
:1040400030782A2811D06FF02F033078A0F1300299
:10405000092A16D8059A44F0020402EB820203EB07
:1040600042021044761C0590EFE759F8042B0592A4
:10407000002A03DA504244F40054059044F002044C
:10408000761C30782E2816D116F8010F44F004045F
:104090002A280DD06FF02F023078A0F13003092BC1
:1040A00009D807EB870302EB4303C718761CF3E735
:1040B00059F8047B761C30786C280FD006DC4C282D
:1040C00017D068280DD06A2814D104E0742810D0C5
:1040D0007A280FD10DE044F400140AE044F480146F
:1040E00001E044F440147278824202D104F5801455
:1040F000761C761C307866280BD013DC582877D0D5
:1041000009DC002875D04528F6D04628F4D0472889
:104110001AD19DE118E0632835D0642879D065284C
:1041200012D195E1702873D008DC6728F1D0692896
:104130006FD06E280DD06F2806D1B5E073282CD033
:10414000752875D0782874D05A46179990476D1CF9
:1041500075E1C4F30250022809D003280DD0D9F824
:10416000001004280DD00D6009F1040967E1D9F8A9
:104170000010EA17C1E90052F6E7D9F800100D80E7
:10418000F2E70D70F0E719F8041B8DF8001000201D
:104190008DF80100EA46012003E059F804AB4FF026
:1041A000FF3061074FF0000102D40DE008F101017A
:1041B0008846B9420FDA8045F8DB1AF80810002962
:1041C000F4D108E008F1010188468142FADB1AF8CF
:1041D00008100029F6D105985B46A0EB0807214698
:1041E0003846179A00F094FA284400EB080507E0D7
:1041F0004DE029E10DE01AF8010B5A461799904756
:10420000B8F10108F7D25B4621463846179A13E108
:1042100042E00A220092C4F302524FF0000A022A3E
:1042200008D059F804CB032A4FEAEC710AD00DE00C
:1042300029E02AE009F1070121F00702F2E802C1B2
:10424000914609E00FFA8CFC4FEAEC71042A03D185
:104250004FFA8CFC4FEAEC71002907DA0A4600217C
:10426000DCF1000C61EB02012D2202E0220504D5F5
:104270002B228DF80420012203E0E20701D0202246
:10428000F7E7904659E00A2102E010220DE01021E4
:104290004FF0000A00910BE010224FF0000A44F0AA
:1042A00004040827009203E008224FF0000A00925D
:1042B000C4F30252022A05D059F804CB0021032A84
:1042C00008D009E009F1070121F00702F2E802C174
:1042D000914605E01FFA8CFC042A01D10CF0FF0C7A
:1042E0004FF00008220728D5702806D0009B83F0E5
:1042F000100353EA0A0305D00EE040228DF8042093
:10430000012208E05CEA010206D030228DF8042088
:104310008DF8050002229046009B83F0080353EAC3
:104320000A030AD15CEA010201D1620705D53022F5
:104330008DF804204FF001087F1E582804D034A0C7
:1043400003900EA802900DE036A0F9E753466046B0
:10435000009AFBF735FF84460398825C0298401E62
:10436000029002705CEA0100F0D1029806A9081AD6
:1043700000F1200A600702D524F4803400E0012710
:10438000574502DDA7EB0A0000E0002000EB0A0120
:10439000009005984144401A0590E00306D45B461E
:1043A0002146179A059800F0B3F90544002706E066
:1043B00001A85A46C05D179990476D1C7F1C474560
:1043C000F6DBE0030CD55B462146179A059800F012
:1043D0009FF9054404E030205A46179990476D1C18
:1043E0000099481E00900029F5DC08E00298029927
:1043F0005A460078491C0291179990476D1CBAF1F2
:104400000001AAF1010AF1DC65E1000009280100C0
:10441000303132333435363738396162636465663A
:1044200000000000303132333435363738394142FC
:10443000434445460000000000F058F90544761C4E
:10444000307800287FF4ECAD19B02846BDE8F08F35
:10445000620700D4062709F1070222F0070CFCE8E6
:104460000223E14603F000485FEA080C02D00FF295
:10447000702C0DE05FEA045C02D50FF2682C07E0B7
:104480005FEAC47C02D00FF2602C01E0AFF2700C46
:104490004FF0FF3823F00043CDF850C065280CD012
:1044A00006DC452809D046281DD047283DD13DE0EF
:1044B000662818D067287ED138E00021112F01DB53
:1044C000112000E0781CCDE9000106A90EA8FFF735
:1044D000DDFCDDE90F010E9A03910021009207F146
:1044E000010A04914DE04FF000400097CDE9011022
:1044F00006A90EA8FFF7CAFCDDE90F0203920E9B86
:1045000011990022DDF80CA00093049211B9791CD6
:1045100000EB010AB7EB0A0004D4C0F1FF3007F149
:10452000010A0490AAEB0700019044E0012F00DA91
:1045300001270021112F01DD112000E03846CDE9CF
:10454000000106A90EA8FFF7A1FCDDE90F010E9AF4
:104550000391002104910092BA4621070CD40399DB
:10456000514500DA8A46BAF1010F05DD009AAAF139
:104570000101515C302908D0B84202DA10F1040F71
:1045800006DA0121CDE9011015E0AAF10101E9E700
:10459000002805DC049901440491AAEB000102E023
:1045A000411C514500DD8A460499401A401C019087
:1045B0004FF000400290200704D40198504501DBE1
:1045C000CDF8048000208DF84F0002980DF14F07C0
:1045D000B0F1004F25D02B200E9002984FF002082A
:1045E00000280CDA404202902D200E9007E00A21AC
:1045F0000298FBF75BFE3031029007F8011DB8F11D
:104600000001A8F10108F2DC02980028EFD1791E20
:104610000E980870307800F0200040F0450007F850
:10462000020D12A8C01B00F107081498007800B111
:10463000012000EB0A01019801EBE071059841446B
:10464000401A401E0590E00306D45B462146179AA7
:10465000059800F05DF805441498007818B15A46A2
:10466000179990476D1CE00324D55B462146179AA5
:10467000059800F04DF805441CE00498002807DB7D
:10468000DDE90301884203DD0098405C179901E0F1
:10469000179930205A469047049805F10105401CAF
:1046A00004900198401E019004D12E205A4617997B
:1046B00090476D1CBAF10001AAF1010ADDDC05E0AA
:1046C00017F8010B5A46179990476D1CB8F1000175
:1046D000A8F10108F4DC5B462146179A0598ABE681
:1046E0002D0000002B000000200000002DE9F0410B
:1046F000044600251E461746880404D405E03946C2
:104700002020B0476D1C641EF9D52846BDE8F08115
:104710002DE9F041044600251E469046C80301D508
:10472000302700E02027880404D505E041463846BC
:10473000B0476D1C641EF9D52846BDE8F081000025
:1047400004490A685206FCD5024AC1B2121D116022
:104750007047000000440040FCF71EFDFEF72CFFF0
:10476000FEF7ECF8FEF766FAFEF780FAFEF79AFA23
:10477000FEF76CF9FEF7C0F9FEF7F2F9FEF724FA3E
:10478000FEF76CFFFEF736FE1EA0FFF74FFB264C30
:104790000120207025A0FFF749FB02E00A20FCF76A
:1047A00093FB60780028F9D00020607026A0FFF706
:1047B0003DFB022084F80000FEF7ACFBFEF724FE70
:1047C0002078801E052812D2DFE800F00306090CCD
:1047D0001500FEF7A5F80AE0FDF776FF07E0FDF704
:1047E00089FE04E01DA0FFF721FBFBF7F9FF0A207B
:1047F000FCF76AFBE0E723A0FFF718FBFBF7F0FFED
:10480000FEE70000BBE699BAE883BDE98081E88D48
:10481000AFE5B08FE8BDA6E590AFE58AA82E2E2EB5
:104820000D0A55443300000048000020BBE7AD8965
:10483000E5BE85E88DAFE59381E8A385E8BDBD2E93
:104840002E2E0D0A55443300BBE5BC80E5A78BE551
:10485000B7A1E7BABF5C720A55443300BBE4BBBBE7
:10486000E58AA1E5AE8CE68890EFBC8CE7AD89E5E2
:10487000BE85E696B0E591BDE4BBA42E2E2E0D0AB2
:1048800055443300BBE7B3BBE7BB9FE99499E8AF5E
:10489000AF2120E5819CE6ADA2E8BF90E8A18CE3C2
:1048A00080825C720A55443300000000AA554433EC
:1048B00000000000000000000102030406070809D0
:1048C0000000000001020304E84800080000002086
:1048D000840000006C3E00086C4900088400002041
:1048E0008C0A00007C3E0008000000000000000070
:1048F00000000000000000000000000000000000B8
:1049000000000000000001000000000000000000A6
:104910000000000000000000000000000000000097
:104920000000000000000000000000000000000087
:104930000000000000000000000000000000000077
:104940000000000000000000000000000000000067
:104950000000000000000000000000000100000056
:0C49600010000000000000000024F40023
:040000050800018965
:00000001FF
